:04000000FEEF17F008
:1006000000002FEC05F0020E16EC05F00A0E0102B8
:10061000F3CF0FF0F4CF10F00202F3501026010ECA
:1006200016EC05F0640E0102F3CF11F0F4CF12F0D6
:100630000202F3501226000E16EC05F0E80E01023D
:10064000F3CF13F0F4CF14F00202F3501426030E8C
:100650000102F350142611501324156E1250142069
:10066000166E0F501524176E10501620186E030EBC
:1006700016EC05F001501724216E02501820226E4E
:10068000000E196E000E1A6E000E1B6E000E1C6E10
:10069000000E1D6E000E1E6E000E1F6E000E206EF0
:1006A0002D0E016E82EC04F0030E046EE80E036E54
:1006B00021C001F022C002F049EC04F001C008F0B2
:1006C00002C009F00B6A0A0E0A6EB4EC04F008507E
:1006D000230FD96EDA6ADF502D6E046A640E036E42
:1006E00021C001F022C002F049EC04F001C008F082
:1006F00002C009F00B6A0A0E0A6EB4EC04F008504E
:10070000230FD96EDA6ADF502E6E046A0A0E036E6A
:1007100021C001F022C002F049EC04F001C008F051
:1007200002C009F00B6A0A0E0A6EB4EC04F008501D
:10073000230FD96EDA6ADF502F6E21C008F022C075
:1007400009F00B6A0A0E0A6EB4EC04F00850230F8D
:10075000D96EDA6ADF50306E010E1926000E1A22A9
:100760001B221C22650E19181A101B101C10D8A46D
:10077000BCEF03F0BEEF03F050EF03F0214A222A52
:1007800021C008F022C009F00B6A0A0E0A6EB4EC10
:1007900004F008500D6E030EE6EC04F0046A0A0E35
:1007A000036E21C001F022C002F049EC04F001C048
:1007B00008F002C009F00B6A0A0E0A6EB4EC04F0ED
:1007C00008500D6E020EE6EC04F0046A640E036E2F
:1007D00021C001F022C002F049EC04F001C008F091
:1007E00002C009F00B6A0A0E0A6EB4EC04F008505D
:1007F0000D6E010EE6EC04F0030E046EE80E036EBF
:1008000021C001F022C002F049EC04F001C008F060
:1008100002C009F00B6A0A0E0A6EB4EC04F008502C
:100820000D6E000EE6EC04F0F40E211806E1220431
:10083000D8A41DEF04F01FEF04F03DEF04F0010E0B
:100840001D26000E1E221F222022A10E1D180AE1C5
:10085000860E1E1807E11F042010D8A432EF04F002
:1008600034EF04F03DEF04F0811E000E1D6E000E0B
:100870001E6E000E1F6E000E206E000E196E000E12
:100880001A6E000E1B6E000E1C6E50EF03F0FEEF92
:1008900017F0066A000E056E03500410D8B453EF2B
:1008A00004F055EF04F07DEF04F0010E076E5DEFEC
:1008B00004F0D89003360436072A04AE62EF04F041
:1008C00064EF04F059EF04F0D89005360636035073
:1008D000015C04500258D8A070EF04F072EF04F0ED
:1008E00077EF04F00350015E0450025A0580D8905F
:1008F00004320332072E64EF04F005C001F006C095
:1009000002F01200066A01500624D96EDA6ADF503E
:10091000836E06C002F0010E036E022A92EF04F00D
:10092000D8900336022E90EF04F08050F00B0310A5
:10093000806E030E056EE80E046E0406D8A0050650
:10094000042806E10528D8A4A8EF04F0AAEF04F0D3
:100950009DEF04F0062A030E0664B1EF04F0B3EF36
:1009600004F083EF04F012000A500B10D8B4BBEF70
:1009700004F0BDEF04F0E1EF04F0010E0C6EC5EFE2
:1009800004F0D8900A360B360C2A0BAECAEF04F0EE
:10099000CCEF04F0C1EF04F00A50085C0B5009588A
:1009A000D8A0D5EF04F0D7EF04F0DBEF04F00A5045
:1009B000085E0B50095AD8900B320A320C2ECCEF3D
:1009C00004F008C008F009C009F012000E6E0EC055
:1009D000A9FF0DC0A8FFA69EA69CA684F29E550E58
:1009E000A76EAA0EA76EA682F28EA1A8FAEF04F057
:1009F000FCEF04F0F5EF04F0A198A6941200540E59
:100A0000F66E0A0EF76E000EF86E00EE23F010EE92
:100A10000AF00900F5CFEEFFE550E150FAE1306A47
:100A20002F6A2E6A2D6A000101EF03F0036E03C0E6
:100A3000A9FFA69EA69CA680A8CF01F0026A12007C
:100A4000956A9250F00B926E8050F00B806E936A14
:100A5000816A1200E721CB6B2D6EEE23EF6F20EC45
:040A600005F012008B
:042FFC00FFEF04F0EF
:00000001FF
