:04000000FEEF17F008
:10060000000084EC04F0176A000E166E000E126EE5
:10061000000E136E000E146E000E156E16C008F05C
:1006200017C009F00B6A0A0E0A6E1FEC04F008509E
:10063000180FD96EDA6ADF50256E046A0A0E036E4F
:1006400016C001F017C002F0B4EC03F001C008F0CE
:1006500002C009F00B6A0A0E0A6E1FEC04F0085083
:10066000180FD96EDA6ADF50246E046A640E036EC6
:1006700016C001F017C002F0B4EC03F001C008F09E
:1006800002C009F00B6A0A0E0A6E1FEC04F0085053
:10069000180FD96EDA6ADF50236E030E046EE80E6F
:1006A000036E16C001F017C002F0B4EC03F001C0F5
:1006B00008F002C009F00B6A0A0E0A6E1FEC04F083
:1006C0000850180FD96EDA6ADF50226E220E016EC2
:1006D000EDEC03F0010E68EC04F0116E0E0E111833
:1006E000D8A475EF03F077EF03F096EF03F012C094
:1006F0000DF013C00EF014C00FF015C010F0122A48
:10070000000E13221422152210500F100E1009E1B2
:10071000C90E0D5CD8A08FEF03F091EF03F00EEF40
:1007200003F0176A000E166E0EEF03F0125013104E
:1007300014101510D8B49FEF03F0A1EF03F006EFEB
:1007400003F015501410131007E1C80E125CD8B056
:10075000ACEF03F0AEEF03F006EF03F0164A172AF2
:1007600006EF03F0FEEF17F0066A000E056E035069
:100770000410D8B4BEEF03F0C0EF03F0E8EF03F0CD
:10078000010E076EC8EF03F0D89003360436072A2F
:1007900004AECDEF03F0CFEF03F0C4EF03F0D89039
:1007A000053606360350015C04500258D8A0DBEF32
:1007B00003F0DDEF03F0E2EF03F00350015E0450BD
:1007C000025A0580D89004320332072ECFEF03F08F
:1007D00005C001F006C002F01200066A01500624AE
:1007E000D96EDA6ADF50836E06C002F0010E036E26
:1007F000022AFDEF03F0D8900336022EFBEF03F040
:100800008050F00B0310806E030E056EE80E046E30
:100810000406D8A00506042806E10528D8A413EF8D
:1008200004F015EF04F008EF04F0062A030E066446
:100830001CEF04F01EEF04F0EEEF03F012000A507C
:100840000B10D8B426EF04F028EF04F04CEF04F0BE
:10085000010E0C6E30EF04F0D8900A360B360C2ADD
:100860000BAE35EF04F037EF04F02CEF04F00A5034
:10087000085C0B500958D8A040EF04F042EF04F098
:1008800046EF04F00A50085E0B50095AD8900B321C
:100890000A320C2E37EF04F008C008F009C009F046
:1008A0001200FE0EF66E080EF76E000EF86E00EEE9
:1008B00018F010EE0AF00900F5CFEEFFE550E15018
:1008C000FAE1256A246A236A226A000101EF03F033
:1008D000016E0104D8A46FEF04F071EF04F075EF1E
:1008E00004F082500F0B76EF04F00F0E1200956AA1
:1008F0009250F00B926E8050F00B806E1200E72148
:10090000CB6B2D6EEE23EF6F89EC04F077EC04F0E7
:0A091000120094500F09946E1200BB
:042FFC0051EF04F09D
:00000001FF
