:04000000FEEF17F008
:100600000000CCEC03F00B6A010E0C6E020E0D6EB6
:10061000030E0E6E000E076E000E086E000E096EC1
:10062000000E0A6E0B500F0FD96EDA6ADF501C6E87
:100630000C500F0FD96EDA6ADF501D6E0D500F0F80
:10064000D96EDA6ADF501E6E0E500F0FD96EDA6A5D
:10065000DF501F6E1C0E016E74EC03F0010E0726B6
:10066000000E082209220A22650E07180810091038
:100670000A10D8A43EEF03F040EF03F012EF03F0AE
:10068000000E076E000E086E000E096E000E0A6E58
:100690000B2A0C2A0D2A0E2A0C0E0E6452EF03F0C0
:1006A00054EF03F055EF03F00E6A0C0E0D645BEF90
:1006B00003F05DEF03F05EEF03F00D6A0C0E0C64C7
:1006C00064EF03F066EF03F067EF03F00C6A0C0EC3
:1006D0000B646DEF03F06FEF03F012EF03F00B6AA2
:1006E00012EF03F0FEEF17F0066A01500624D96EF0
:1006F000DA6ADF50836E06C002F0010E036E022A32
:1007000084EF03F0D8900336022E82EF03F080507E
:10071000F00B0310806E030E056EE80E046E0406E7
:10072000D8A00506042806E10528D8A49AEF03F00E
:100730009CEF03F08FEF03F0062A030E0664A3EF8D
:1007400003F0A5EF03F075EF03F012008A0EF66ECA
:10075000070EF76E000EF86E00EE0FF010EE0DF0C3
:100760000900F5CFEEFFE550E150FAE11F6A1E6A7D
:100770001D6A1C6A000101EF03F0956A9250F00BAC
:10078000926E8050F00B806E1200000000E721CBCB
:070790006B2D6EEE23EF6FED
:06079800BDEC03F01200AD
:042FFC00A6EF03F049
:00000001FF
