:04000000FEEF17F008
:100600000000ADEC04F0000E10EC04F00B6E0F0EC9
:100610000B18D8B40EEF03F010EF03F035EF03F032
:1006200022EF03F0010E0C6E36EF03F0020E0C6E9B
:1006300036EF03F0030E0C6E36EF03F0040E0C6E73
:1006400036EF03F00B50070AD8B41EEF03F00C0A84
:10065000D8B41AEF03F0060AD8B416EF03F0030A71
:10066000D8B412EF03F036EF03F0816A0C04D8A47B
:100670003CEF03F03EEF03F043EF03F0816A6FECD1
:1006800003F003EF03F0020E0C18D8A44AEF03F0B6
:100690004CEF03F051EF03F0816ACFEC03F003EF6E
:1006A00003F0030E0C18D8A458EF03F05AEF03F030
:1006B0005FEF03F0816A75EC04F003EF03F0040EC2
:1006C0000C18D8A466EF03F068EF03F003EF03F013
:1006D000816A48EC04F003EF03F0FEEF17F0010E1F
:1006E0000126000E022203220422110E011809E144
:1006F000270E021803100410D8A481EF03F083EF33
:1007000003F0CEEF03F0065007E1080E055CD8B009
:100710008CEF03F08EEF03F092EF03F0D880813678
:10072000C4EF03F0065007E1100E055CD8B09BEF54
:1007300003F09DEF03F0A2EF03F081508124816E5E
:10074000C4EF03F0065007E1180E055CD8B0ABEF1C
:1007500003F0ADEF03F0B1EF03F0D8808132C4EFC6
:1007600003F0065007E1200E055CD8B0BAEF03F0A5
:10077000BCEF03F0C1EF03F0D8908130816EC4EF7D
:1007800003F0066A000E056E054A062A000E016E89
:10079000000E026E000E036E000E046E1200010EBB
:1007A0000126000E022203220422110E011809E183
:1007B000270E021803100410D8A4E1EF03F0E3EFB2
:1007C00003F00FEF04F0065007E1080E055CD8B007
:1007D000ECEF03F0EEEF03F0F2EF03F0D880813698
:1007E00005EF04F0065007E1100E055CD8B0FBEFF2
:1007F00003F0FDEF03F002EF04F081508124816EDD
:1008000005EF04F0066A000E056E054A062A000E82
:10081000016E000E026E000E036E000E046E1200DA
:100820000A6E0A04D8A417EF04F019EF04F01DEFC4
:1008300004F082500F0B47EF04F00A50D8A423EFC6
:1008400004F025EF04F046EF04F082500F0B0F0A7E
:10085000D8B42DEF04F02FEF04F03AEF04F0075076
:10086000D8B435EF04F037EF04F03AEF04F0076A3C
:1008700019EF04F082500F0B0F0AD8A442EF04F0D6
:1008800044EF04F046EF04F0010E076E0F0E120065
:10089000010E0126000E022203220422110E01186D
:1008A00009E1270E021803100410D8A45AEF04F02F
:1008B0005CEF04F074EF04F00850D8A462EF04F089
:1008C00064EF04F06AEF04F00F0E816E010E086E03
:1008D0006CEF04F0811E086A000E016E000E026EBD
:1008E000000E036E000E046E1200010E0126000EB3
:1008F000022203220422110E011809E1270E021818
:1009000003100410D8A487EF04F089EF04F0A1EFDE
:1009100004F00950D8A48FEF04F091EF04F097EFA2
:1009200004F0550E816E010E096E99EF04F0811EE0
:10093000096A000E016E000E026E000E036E000EBC
:10094000046E120000EE01F0090EEE6AE806FDE109
:10095000000EF86E000101EF03F0936A816AB2ECB9
:0C09600004F0120094500F09946E120075
:042FFC00A2EF04F04C
:00000001FF
