:04000000FEEF17F008
:100600000000936A816A066A000E056E000E016E94
:10061000000E026E000E036E000E046E010E012627
:10062000000E022203220422A10E01180AE1860E06
:10063000021807E103040410D8A421EF03F023EF0C
:1006400003F00EEF03F0065007E1080E055CD8B08A
:100650002CEF03F02EEF03F032EF03F0D880813659
:1006600064EF03F0065007E1100E055CD8B03BEFD5
:1006700003F03DEF03F042EF03F081508124816EDF
:1006800064EF03F0065007E1180E055CD8B04BEF9D
:1006900003F04DEF03F051EF03F0D880813264EFA7
:1006A00003F0065007E1200E055CD8B05AEF03F0C6
:1006B0005CEF03F061EF03F0D8908130816E64EF5E
:1006C00003F0066A000E056E000E016E000E026E4B
:1006D000000E036E000E046E054A062A0EEF03F0AC
:0A06E000FEEF17F0000101EF03F038
:042FFC0072EF03F07D
:00000001FF
