:0400000007EF00F016
:0A000800018226ED05F0DDEF05F0A2
:10060000000004EC06F0136A146A166A176A116A8D
:10061000156A010E73EC05F0126E070E1218D8A4BD
:1006200014EF03F016EF03F021EF03F01350D8B4EA
:100630001CEF03F01FEF03F0010E20EF03F0000E9C
:10064000136E1304D8A427EF03F029EF03F0C4EFCF
:1006500003F00B0E1218D8A430EF03F032EF03F0C2
:100660003FEF03F01450D8B438EF03F03BEF03F042
:10067000010E3CEF03F0000E146EECEF03F00D0ED4
:100680001218D8A446EF03F048EF03F085EF03F00B
:100690001450D8A44EEF03F050EF03F06BEF03F0CB
:1006A000152A1504106E140E106459EF03F05BEF59
:1006B00003F0ECEF03F01750D8A461EF03F063EF01
:1006C00003F067EF03F03B0E176E68EF03F01706B9
:1006D000156AECEF03F0152A1504106E140E106461
:1006E00074EF03F076EF03F0ECEF03F01650D8A4AC
:1006F0007CEF03F07EEF03F082EF03F0170E166E2F
:1007000068EF03F0160668EF03F00E0E1218D8A477
:100710008CEF03F08EEF03F068EF03F01450D8A4D1
:1007200094EF03F096EF03F0ADEF03F0152A1504F4
:10073000106E140E10649FEF03F0A1EF03F0ECEFC6
:1007400003F0172A3B0E1764A8EF03F0AAEF03F09B
:1007500068EF03F0176A68EF03F0152A1504106EAE
:10076000140E1064B6EF03F0B8EF03F0ECEF03F0F3
:10077000162A170E1664BFEF03F0C1EF03F068EFFF
:1007800003F0166A68EF03F01F04D8A4CAEF03F061
:10079000CCEF03F0CFEF03F01150010A116E1E04ED
:1007A000D8A4D5EF03F0D7EF03F0ECEF03F01E6A07
:1007B000172A3B0E1764DFEF03F0E1EF03F0E3EFDE
:1007C00003F0176A162A170E1664E9EF03F0EBEF31
:1007D00003F0ECEF03F0166A17C00AF00B6A0D6A1B
:1007E0000A0E0C6ECFEC04F00A50240FD96EDA6AB0
:1007F000DF50236E056A0A0E046E17C002F0036A0A
:100800006FEC04F002C00AF003C00BF00D6A0A0E90
:100810000C6ECFEC04F00A50240FD96EDA6ADF5068
:10082000226E16C00AF00B6A0D6A0A0E0C6ECFEC2F
:1008300004F00A50240FD96EDA6ADF50216E056A7F
:100840000A0E046E16C002F0036A6FEC04F002C0D8
:100850000AF003C00BF00D6A0A0E0C6ECFEC04F028
:100860000A50240FD96EDA6ADF50206E1350D8A4D4
:100870003CEF04F03EEF04F049EF04F01150D8B41F
:1008800044EF04F046EF04F049EF04F02150100962
:10089000216E1304D8A44FEF04F051EF04F067EF7A
:1008A00004F01F50D8B457EF04F059EF04F067EF8D
:1008B00004F01450D8A45FEF04F061EF04F065EF8A
:1008C00004F0236A226A67EF04F0216A206A200E8E
:1008D000026EABEC05F009EF03F007EF00F0076ADA
:1008E00005BE77EF04F075EF04F07DEF04F0046CC3
:1008F000051ED8B0052A010E076E03BE84EF04F072
:1009000082EF04F08AEF04F0026C031ED8B0032AD1
:10091000010E071A096A000E086E04500510D8B4BB
:1009200094EF04F096EF04F0BEEF04F0010E066EB3
:100930009EEF04F0D89004360536062A05AEA3EFE4
:1009400004F0A5EF04F09AEF04F0D89008360936C9
:100950000450025C05500358D8A0B1EF04F0B3EF87
:1009600004F0B8EF04F00450025E0550035A08800A
:10097000D89005320432062EA5EF04F00750D8B403
:10098000C4EF04F0C6EF04F0CAEF04F0086C091ECF
:10099000D8B0092A08C002F009C003F012000F6A9B
:1009A0000BBED7EF04F0D5EF04F0DDEF04F00A6CD6
:1009B0000B1ED8B00B2A010E0F6E0DBEE4EF04F033
:1009C000E2EF04F0E8EF04F00C6C0D1ED8B00D2A35
:1009D0000C500D10D8B4EFEF04F0F1EF04F015EF68
:1009E00005F0010E0E6EF9EF04F0D8900C360D36BE
:1009F0000E2A0DAEFEEF04F000EF05F0F5EF04F067
:100A00000C500A5C0D500B58D8A009EF05F00BEF05
:100A100005F00FEF05F00C500A5E0D500B5AD89000
:100A20000D320C320E2E00EF05F00F50D8B41BEF34
:100A300005F01DEF05F021EF05F00A6C0B1ED8B094
:100A40000B2A0AC00AF00BC00BF012000600F2A439
:100A50002CEF05F02EEF05F071EF05F0F294D76A58
:100A6000060ED66E880E1A1807E1130E1B18D8A4AE
:100A70003CEF05F03EEF05F04CEF05F01F50D8B409
:100A800044EF05F047EF05F0010E48EF05F0000ECA
:100A90001F6E1B6A000E1A6E200E181807E14E0E0C
:100AA0001918D8A456EF05F058EF05F05CEF05F0E3
:100AB000196A000E186E1C2A3B0E1C6462EF05F0CA
:100AC00064EF05F067EF05F0010E1E6E1C6A1A4A0E
:100AD0001B2A184A192A080ED624D66E000ED720D3
:100AE000D76E01921100026E0204D8A47AEF05F0CD
:100AF0007CEF05F080EF05F082500F0BAAEF05F0B8
:100B00000250D8A486EF05F088EF05F0A9EF05F0B4
:100B100082500F0B0F0AD8B490EF05F092EF05F05A
:100B20009DEF05F01D50D8B498EF05F09AEF05F051
:100B30009DEF05F01D6A7CEF05F082500F0B0F0A48
:100B4000D8A4A5EF05F0A7EF05F0A9EF05F0010E79
:100B50001D6E0F0E1200076A02500724D96EDA6A62
:100B6000DF50836E07C003F0010E046E032ABBEF53
:100B700005F0D8900436032EB9EF05F08050F00B45
:100B80000410806E030E066EE80E056E0506D8A0F2
:100B90000606052806E10628D8A4D1EF05F0D3EF14
:100BA00005F0C6EF05F0072A030E0764DAEF05F03B
:100BB000DCEF05F0ACEF05F012002A0EF66E0C0E1D
:100BC000F76E000EF86E00EE24F010EE0AF0090049
:100BD000F5CFEEFFE550E150FAE100EE18F00C0E13
:100BE000EE6AE806FDE101900192000101EF03F0D9
:100BF000F28EF28CD58CD59AD586D76A060ED66E33
:100C0000F294F28AD58E1200F28EF28CF8EC05F096
:100C10000DEC06F01AEC06F01200956A9250F00BFB
:100C2000926E8050F00B806E1200E721CB6B2D6E20
:0C0C3000EE23EF6F94500F09946E120039
:00000001FF
