:0400000007EF00F016
:0A000800018201ED03F061EF03F047
:1006000000000600F2A407EF03F009EF03F025EF66
:1006100003F0F294D76A060ED66E064A072A100E29
:10062000061807E1270E0718D8A419EF03F01BEFEF
:1006300003F021EF03F0076A000E066E8150010AF5
:10064000816E080ED626000ED7229EA02AEF03F058
:100650002CEF03F043EF03F09E900B0ECF6EDE0EF7
:10066000CE6E044A052A280E04180510D8A43BEFC4
:1006700003F03DEF03F043EF03F0056A000E046E54
:100680008150020A816E9EA248EF03F04AEF03F008
:100690005FEF03F09E92024A032A100E021807E150
:1006A000270E0318D8A457EF03F059EF03F05FEFBC
:1006B00003F0036A000E026E8150040A816E0192FB
:1006C0001100076A066A056A046A036A026A0190F1
:1006D0000192000195EF03F0F28EF28C9BEC03F097
:1006E00082EC03F077EC03F08CEC03F01200CD9277
:1006F000CD9ACD980B0ECF6EDC0ECE6E9E909D8067
:10070000CD801200D58CD59AD586D76A060ED66EC6
:10071000F294F28AD58E1200F90ECB6ECA90CA926C
:10072000CC6A9E929D82CA8412006CEC03F097EF13
:1007300003F007EF00F0F80E936E070E816E1200C3
:00000001FF
