:0400000007EF00F016
:0A000800018211ED04F023EF05F072
:1006000000004DEC05F0040E106ED20E0F6E000EC1
:1006100087EC04F00E6E0F0E0E18D8B412EF03F034
:1006200014EF03F017EF03F01F6A3EEF03F00E0E16
:100630000E18D8B41EEF03F020EF03F03BEF03F0E9
:100640000D0E0E18D8B427EF03F029EF03F03BEF9F
:1006500003F00B0E0E18D8B430EF03F032EF03F0B6
:100660003BEF03F0070E0E18D8A439EF03F03BEF71
:1006700003F03EEF03F0050E1F6E1E6A1E50D8B445
:1006800044EF03F046EF03F048EF03F01E6A1F6AE1
:10069000050E1F18D8A44FEF03F051EF03F0B1EF90
:1006A00003F01F6A030E056EE80E046E0FC002F021
:1006B00010C003F04EEC04F002C009F003C00AF0D1
:1006C0000C6A0A0E0B6EF1EC04F00950110FD96E92
:1006D000DA6ADF50206E056A640E046E0FC002F005
:1006E00010C003F04EEC04F002C009F003C00AF0A1
:1006F0000C6A0A0E0B6EF1EC04F00950110FD96E62
:10070000DA6ADF50216E056A0A0E046E0FC002F02D
:1007100010C003F04EEC04F002C009F003C00AF070
:100720000C6A0A0E0B6EF1EC04F00950110FD96E31
:10073000DA6ADF50226E0FC009F010C00AF00C6AAE
:100740000A0E0B6EF1EC04F00950110FD96EDA6A43
:10075000DF50236E200E026EBFEC04F0030007EFA3
:1007600003F0030E056EE80E046E0FC002F010C019
:1007700003F04EEC04F002C009F003C00AF00C6A6A
:100780000A0E0B6EF1EC04F00950110FD96EDA6A03
:10079000DF50206E056A640E046E0FC002F010C0B8
:1007A00003F04EEC04F002C009F003C00AF00C6A3A
:1007B0000A0E0B6EF1EC04F00950110FD96EDA6AD3
:1007C000DF50216E056A0A0E046E0FC002F010C0E1
:1007D00003F04EEC04F002C009F003C00AF00C6A0A
:1007E0000A0E0B6EF1EC04F00950110FD96EDA6AA3
:1007F000DF50226E0FC009F010C00AF00C6A0A0E1A
:100800000B6EF1EC04F00950110FD96EDA6ADF506B
:10081000236E200E026EBFEC04F007EF03F007EF2B
:1008200000F00600F2A217EF04F019EF04F01CEF3D
:1008300004F0010E1E6EF292F2A421EF04F023EFF9
:1008400004F04CEF04F0F2941B4A1C2A100E1B1803
:1008500007E1270E1C18D8A430EF04F032EF04F0A3
:1008600034EF04F0800E811A200E1B1807E14E0EA3
:100870001C18D8A43EEF04F040EF04F046EF04F05B
:10088000800E811A1F2A1C6A000E1B6E080ED624C9
:10089000D66E000ED720D76E01921100076A000EA7
:1008A000066E04500510D8B458EF04F05AEF04F067
:1008B00082EF04F0010E086E62EF04F0D890043667
:1008C0000536082A05AE67EF04F069EF04F05EEF25
:1008D00004F0D890063607360450025C05500358E1
:1008E000D8A075EF04F077EF04F07CEF04F004502B
:1008F000025E0550035A0680D89005320432082E55
:1009000069EF04F006C002F007C003F01200026EA7
:100910000204D8A48EEF04F090EF04F094EF04F0FA
:1009200082500F0BBEEF04F00250D8A49AEF04F0EF
:100930009CEF04F0BDEF04F082500F0B0F0AD8B407
:10094000A4EF04F0A6EF04F0B1EF04F01D50D8B40A
:10095000ACEF04F0AEEF04F0B1EF04F01D6A90EFDD
:1009600004F082500F0B0F0AD8A4B9EF04F0BBEFCC
:1009700004F0BDEF04F0010E1D6E0F0E1200076AA9
:1009800002500724D96EDA6ADF50836E07C003F085
:10099000010E046E032ACFEF04F0D8900436032E24
:1009A000CDEF04F08050F00B0410806E030E066E45
:1009B000E80E056E0506D8A00606052806E10628FD
:1009C000D8A4E5EF04F0E7EF04F0DAEF04F0072A2B
:1009D000030E0764EEEF04F0F0EF04F0C0EF04F054
:1009E00012000B500C10D8B4F8EF04F0FAEF04F03A
:1009F0001EEF05F0010E0D6E02EF05F0D8900B36DC
:100A00000C360D2A0CAE07EF05F009EF05F0FEEFEE
:100A100004F00B50095C0C500A58D8A012EF05F0F6
:100A200014EF05F018EF05F00B50095E0C500A5A50
:100A3000D8900C320B320D2E09EF05F009C009F0E9
:100A40000AC00AF01200BC0EF66E0A0EF76E000E17
:100A5000F86E00EE11F010EE0AF00900F5CFEEFF8F
:100A6000E550E150FAE100EE1BF0090EEE6AE806EF
:100A7000FDE101900192000101EF03F09380F292F9
:100A8000F288F19CF28EF28CD76A060ED66ED58C67
:100A9000D59AD58EF294F28A120067EC05F063ECD9
:100AA00005F056EC05F03EEC05F01200956A925008
:100AB000F00B926E8050F00B806E12000021CB6B19
:100AC0002D6EEE23EF6F010E936E816A120094502B
:060AD0000F09946E1200F4
:00000001FF
