:04000000FEEF17F008
:10060000000040EC05F0020E29EC05F00A0E010294
:10061000F3CF0FF0F4CF10F00202F3501026010ECA
:1006200029EC05F0640E0102F3CF11F0F4CF12F0C3
:100630000202F3501226000E29EC05F0E80E01022A
:10064000F3CF13F0F4CF14F00202F3501426030E8C
:100650000102F350142611501324156E1250142069
:10066000166E0F501524176E10501620186E030EBC
:1006700029EC05F0015017241E6E025018201F6E41
:10068000000E1A6E000E1B6E000E1C6E000E1D6E0C
:100690001EC008F01FC009F00B6A0A0E0A6EB8EC03
:1006A00004F00850200FD96EDA6ADF502D6E046A0C
:1006B0000A0E036E1EC001F01FC002F04DEC04F0E4
:1006C00001C008F002C009F00B6A0A0E0A6EB8EC0D
:1006D00004F00850200FD96EDA6ADF502C6E046ADD
:1006E000640E036E1EC001F01FC002F04DEC04F05A
:1006F00001C008F002C009F00B6A0A0E0A6EB8ECDD
:1007000004F00850200FD96EDA6ADF502B6E030E0A
:10071000046EE80E036E1EC001F01FC002F04DEC27
:1007200004F001C008F002C009F00B6A0A0E0A6E5C
:10073000B8EC04F00850200FD96EDA6ADF502A6E48
:100740002A0E016E86EC04F0010E1AEC05F0196E0B
:100750000E0E1918D8A4AFEF03F0B1EF03F0D0EFED
:1007600003F01AC00FF01BC010F01CC011F01DC028
:1007700012F01A2A000E1B221C221D2212501110E8
:10078000101009E1C90E0F5CD8A0C9EF03F0CBEF40
:1007900003F048EF03F01F6A000E1E6E48EF03F0EF
:1007A0000D0E1918D8A4D7EF03F0D9EF03F02FEFEF
:1007B00004F01EC008F01FC009F00B6A0A0E0A6E92
:1007C000B8EC04F008500D6E030EEAEC04F0046A75
:1007D0000A0E036E1EC001F01FC002F04DEC04F0C3
:1007E00001C008F002C009F00B6A0A0E0A6EB8ECEC
:1007F00004F008500D6E020EEAEC04F0046A640E78
:10080000036E1EC001F01FC002F04DEC04F001C0E9
:1008100008F002C009F00B6A0A0E0A6EB8EC04F088
:1008200008500D6E010EEAEC04F0030E046EE80EA3
:10083000036E1EC001F01FC002F04DEC04F001C0B9
:1008400008F002C009F00B6A0A0E0A6EB8EC04F058
:1008500008500D6E000EEAEC04F048EF03F01A5059
:100860001B101C101D10D8B438EF04F03AEF04F040
:1008700040EF03F01D501C101B1007E1C80E1A5C5E
:10088000D8B045EF04F047EF04F040EF03F01E4A04
:100890001F2A40EF03F0FEEF17F0066A000E056E08
:1008A00003500410D8B457EF04F059EF04F081EF6F
:1008B00004F0010E076E61EF04F0D89003360436A1
:1008C000072A04AE66EF04F068EF04F05DEF04F071
:1008D000D890053606360350015C04500258D8A063
:1008E00074EF04F076EF04F07BEF04F00350015E48
:1008F0000450025A0580D89004320332072E68EF64
:1009000004F005C001F006C002F01200066A0150B2
:100910000624D96EDA6ADF50836E06C002F0010E3B
:10092000036E022A96EF04F0D8900336022E94EF5D
:1009300004F08050F00B0310806E030E056EE80E7D
:10094000046E0406D8A00506042806E10528D8A4EC
:10095000ACEF04F0AEEF04F0A1EF04F0062A030EB2
:100960000664B5EF04F0B7EF04F087EF04F012006F
:100970000A500B10D8B4BFEF04F0C1EF04F0E5EF5C
:1009800004F0010E0C6EC9EF04F0D8900A360B3655
:100990000C2A0BAECEEF04F0D0EF04F0C5EF04F05C
:1009A0000A50085C0B500958D8A0D9EF04F0DBEFCF
:1009B00004F0DFEF04F00A50085E0B50095AD8909B
:1009C0000B320A320C2ED0EF04F008C008F009C038
:1009D00009F012000E6E0EC0A9FF0DC0A8FFA69E62
:1009E000A69CA684F29E550EA76EAA0EA76EA6829E
:1009F000F28EA1A8FEEF04F000EF05F0F9EF04F08D
:100A0000A198A6941200760EF66E0A0EF76E000EEE
:100A1000F86E00EE20F010EE0AF00900F5CFEEFFC0
:100A2000E550E150FAE12D6A2C6A2B6A2A6A00012E
:100A300001EF03F0016E0104D8A421EF05F023EFCC
:100A400005F027EF05F082500F0B28EF05F00F0E91
:100A50001200036E03C0A9FFA69EA69CA680A8CF85
:100A600001F0026A1200956A9250F00B926E80506B
:100A7000F00B806E1200E721CB6B2D6EEE23EF6F33
:100A800045EC05F033EC05F0120094500F09946E1C
:020A9000120052
:042FFC0003EF05F0EA
:00000001FF
