:0400000007EF00F016
:0A0008000182FAED03F05FEF04F04F
:100600000000196A17BE09EF03F007EF03F00FEFC0
:1006100003F0166C171ED8B0172A010E196E15BEFE
:1006200016EF03F014EF03F01CEF03F0146C151E2B
:10063000D8B0152A010E191A1B6A000E1A6E165030
:100640001710D8B426EF03F028EF03F050EF03F0B3
:10065000010E186E30EF03F0D89016361736182AB0
:1006600017AE35EF03F037EF03F02CEF03F0D8901F
:100670001A361B361650145C17501558D8A043EF85
:1006800003F045EF03F04AEF03F01650145E1750E5
:10069000155A1A80D89017321632182E37EF03F0F9
:1006A0001950D8B456EF03F058EF03F05CEF03F0A5
:1006B0001A6C1B1ED8B01B2A1AC014F01BC015F0F0
:1006C0001200196A15BE69EF03F067EF03F06FEFD0
:1006D00003F0146C151ED8B0152A010E196E17BE42
:1006E00076EF03F074EF03F07AEF03F0166C171E49
:1006F000D8B0172A16501710D8B481EF03F083EF43
:1007000003F0A7EF03F0010E186E8BEF03F0D89003
:1007100016361736182A17AE90EF03F092EF03F053
:1007200087EF03F01650145C17501558D8A09BEFB4
:1007300003F09DEF03F0A1EF03F01650145E175085
:10074000155AD89017321632182E92EF03F019501E
:10075000D8B4ADEF03F0AFEF03F0B3EF03F0146CD8
:10076000151ED8B0152A14C014F015C015F01200CB
:1007700090EC04F00EC014F0156A176A0A0E166E9B
:1007800001EC03F01450020FD96EDA6ADF50106EDC
:100790000EC014F0156A176A0A0E166E61EC03F0AB
:1007A0001450020FD96EDA6ADF50116E0FC014F0C8
:1007B000156A176A0A0E166E01EC03F01450020F48
:1007C000D96EDA6ADF50126E0FC014F0156A176A1C
:1007D0000A0E166E61EC03F01450020FD96EDA6A3D
:1007E000DF50136E100E146E2DEC04F0BAEF03F010
:1007F00007EF00F006009EA200EF04F002EF04F005
:100800002BEF04F09E920C4A0D2A200E0C1807E1E3
:100810004E0E0D18D8A40FEF04F011EF04F02BEFDB
:1008200004F00D6A000E0C6E0F2A3C0E0F18D8A4AF
:100830001CEF04F01EEF04F014EF04F00F6A0E2A10
:100840003B0E0E6426EF04F028EF04F014EF04F0E2
:100850000E6A14EF04F001921100196A1450192461
:10086000D96EDA6ADF50836E19C015F0010E166E6C
:10087000152A3DEF04F0D8901636152E3BEF04F004
:100880008050F00B1610806E030E186EE80E176E77
:100890001706D8A01806172806E11828D8A453EF81
:1008A00004F055EF04F048EF04F0192A030E196420
:1008B0005CEF04F05EEF04F02EEF04F01200160E71
:1008C000F66E090EF76E000EF86E00EE02F010EEF6
:1008D0000AF00900F5CFEEFFE550E150FAE100EE35
:1008E0000CF0080EEE6AE806FDE1019001920001AD
:1008F000B8EF03F0F28EF28CCA84F294F28ACC6ADA
:10090000F90ECB6E1200956A9250F00B926E8050E9
:10091000F00B806E1200E721CB6B2D6EEE23EF6F94
:0A09200083EC04F07AEC04F01200FE
:00000001FF
