:0400000007EF00F016
:0A000800018243ED04F0BFEF04F0A5
:100600000000F3EC04F00C0E116E126A106A19046B
:10061000D8A40DEF03F00FEF03F012EF03F010502A
:10062000010A106E1804D8A418EF03F01AEF03F0B3
:100630002FEF03F0186A122A3B0E126422EF03F028
:1006400024EF03F026EF03F0126A112A170E11644B
:100650002CEF03F02EEF03F02FEF03F0116A1A0EC8
:10066000026E8DEC04F012C00AF00B6A0D6A0A0EDD
:100670000C6EECEC03F00A501E0FD96EDA6ADF50F4
:100680001D6E056A0A0E046E12C002F0036A8CEC3D
:1006900003F002C00AF003C00BF00D6A0A0E0C6EE4
:1006A000ECEC03F00A501E0FD96EDA6ADF501C6EB4
:1006B00011C00AF00B6A0D6A0A0E0C6EECEC03F026
:1006C0000A501E0FD96EDA6ADF501B6E056A0A0ED9
:1006D000046E11C002F0036A8CEC03F002C00AF051
:1006E00003C00BF00D6A0A0E0C6EECEC03F00A501E
:1006F0001E0FD96EDA6ADF501A6E1050D8B483EF2D
:1007000003F085EF03F007EF03F01B5010091B6E99
:1007100007EF03F007EF00F0076A05BE94EF03F060
:1007200092EF03F09AEF03F0046C051ED8B0052A8F
:10073000010E076E03BEA1EF03F09FEF03F0A7EFDA
:1007400003F0026C031ED8B0032A010E071A096ACF
:10075000000E086E04500510D8B4B1EF03F0B3EFEB
:1007600003F0DBEF03F0010E066EBBEF03F0D89051
:1007700004360536062A05AEC0EF03F0C2EF03F0DB
:10078000B7EF03F0D890083609360450025C0550E4
:100790000358D8A0CEEF03F0D0EF03F0D5EF03F06D
:1007A0000450025E0550035A0880D8900532043286
:1007B000062EC2EF03F00750D8B4E1EF03F0E3EFE9
:1007C00003F0E7EF03F0086C091ED8B0092A08C04F
:1007D00002F009C003F012000F6A0BBEF4EF03F041
:1007E000F2EF03F0FAEF03F00A6C0B1ED8B00B2AFD
:1007F000010E0F6E0DBE01EF04F0FFEF03F005EFE9
:1008000004F00C6C0D1ED8B00D2A0C500D10D8B48D
:100810000CEF04F00EEF04F032EF04F0010E0E6E58
:1008200016EF04F0D8900C360D360E2A0DAE1BEFE5
:1008300004F01DEF04F012EF04F00C500A5C0D50B0
:100840000B58D8A026EF04F028EF04F02CEF04F0AA
:100850000C500A5E0D500B5AD8900D320C320E2EF1
:100860001DEF04F00F50D8B438EF04F03AEF04F065
:100870003EEF04F00A6C0B1ED8B00B2A0AC00AF037
:100880000BC00BF012000600F2A449EF04F04BEF8E
:1008900004F08BEF04F0F294154A162A134A142A36
:1008A000880E151807E1130E1618D8A45AEF04F095
:1008B0005CEF04F06AEF04F01950D8B462EF04F072
:1008C00065EF04F0010E66EF04F0000E196E166A73
:1008D000000E156E200E131807E14E0E1418D8A442
:1008E00074EF04F076EF04F07AEF04F0172A146A3C
:1008F000000E136E3B0E176480EF04F082EF04F0DD
:1009000085EF04F0010E186E176A080ED624D66E15
:10091000000ED720D76E01921100076A02500724FB
:10092000D96EDA6ADF50836E07C003F0010E046EE1
:10093000032A9DEF04F0D8900436032E9BEF04F0B9
:100940008050F00B0410806E030E066EE80E056EEC
:100950000506D8A00606052806E10628D8A4B3EFA8
:1009600004F0B5EF04F0A8EF04F0072A030E0764C3
:10097000BCEF04F0BEEF04F08EEF04F01200DC0ECA
:10098000F66E090EF76E000EF86E00EE1EF010EE19
:100990000AF00900F5CFEEFFE550E150FAE100EE74
:1009A00013F00B0EEE6AE806FDE1019001920001E2
:1009B00001EF03F0F28EF28CD58CD59AD586D76AEA
:1009C000060ED66EF294F28AD58E1200956A925077
:1009D000F00B926E8050F00B806E1200E721CB6B13
:1009E0002D6EEE23EF6FE6EC04F0DAEC04F012006B
:00000001FF
