:04000000FEEF17F008
:1006000000004BEC05F0136A000E126E000E0E6E29
:10061000000E0F6E000E106E000E116E000E16EC26
:1006200004F00D6E0F0E0D18D8B419EF03F01BEF88
:1006300003F00EEF03F009EF04F0010E0E26000E9A
:100640000F2210221122A10E0E180AE1860E0F1899
:1006500007E110041110D8A430EF03F032EF03F0DB
:1006600096EF03F0030E046EE80E036E12C001F065
:1006700013C002F050EC04F001C008F002C009F011
:100680000B6A0A0E0A6EF0EC04F00850140FD96ED3
:10069000DA6ADF50226E046A640E036E12C001F043
:1006A00013C002F050EC04F001C008F002C009F0E1
:1006B0000B6A0A0E0A6EF0EC04F00850140FD96EA3
:1006C000DA6ADF50226E046A0A0E036E12C001F06D
:1006D00013C002F050EC04F001C008F002C009F0B1
:1006E0000B6A0A0E0A6EF0EC04F00850140FD96E73
:1006F000DA6ADF50226E12C008F013C009F00B6AEC
:100700000A0E0A6EF0EC04F00850140FD96EDA6A83
:10071000DF50226E220E016EBEEC04F0000E0E6E53
:10072000000E0F6E000E106E000E116E010E0E26E2
:10073000000E0F2210221122A10E0E180AE1860EC1
:100740000F1807E110041110D8A4A9EF03F0ABEFC4
:1007500003F00EEF03F0030E046EE80E036E12C0FA
:1007600001F013C002F050EC04F001C008F002C028
:1007700009F00B6A0A0E0A6EF0EC04F00850140F30
:10078000D96EDA6ADF50226E046A640E036E12C0FC
:1007900001F013C002F050EC04F001C008F002C0F8
:1007A00009F00B6A0A0E0A6EF0EC04F00850140F00
:1007B000D96EDA6ADF50226E046A0A0E036E12C026
:1007C00001F013C002F050EC04F001C008F002C0C8
:1007D00009F00B6A0A0E0A6EF0EC04F00850140FD0
:1007E000D96EDA6ADF50226E12C008F013C009F029
:1007F0000B6A0A0E0A6EF0EC04F00850140FD96E62
:10080000DA6ADF50226E220E016E89EC04F006EFE8
:1008100003F00D500D0AD8B496EF03F0030AD8B4D4
:100820001DEF03F00EEF03F0FEEF17F0016E010471
:10083000D8A41DEF04F01FEF04F023EF04F0825062
:100840000F0B4FEF04F00150D8A429EF04F02BEF69
:1008500004F04EEF04F082500F0B0F0AD8B433EFC0
:1008600004F035EF04F040EF04F02150D8B43BEF32
:1008700004F03DEF04F040EF04F0216A1FEF04F0B4
:1008800082500F0B0F0AD8B448EF04F04AEF04F07F
:100890004FEF04F0010E216E4FEF04F00F0E120027
:1008A000066A000E056E03500410D8B45AEF04F027
:1008B0005CEF04F084EF04F0010E076E64EF04F0C7
:1008C000D89003360436072A04AE69EF04F06BEFC4
:1008D00004F060EF04F0D890053606360350015C52
:1008E00004500258D8A077EF04F079EF04F07EEFBF
:1008F00004F00350015E0450025A0580D89004327F
:100900000332072E6BEF04F005C001F006C002F0C1
:100910001200076A01500724D96EDA6ADF50836E2D
:1009200007C002F0800E036E000E046E022A9CEFD8
:1009300004F0043404320332022E99EF04F08050A4
:10094000F00B0310806E030E066EE80E056E0506B2
:10095000D8A00606052806E10628D8A4B2EF04F0C0
:10096000B4EF04F0A7EF04F0072A030E0764BBEF0F
:1009700004F0BDEF04F08AEF04F01200066A0150A3
:100980000624D96EDA6ADF50836E06C002F0010ECB
:10099000036E022ACEEF04F0D8900336022ECCEF7D
:1009A00004F08050F00B0310806E030E056EE80E0D
:1009B000046E0406D8A00506042806E10528D8A47C
:1009C000E4EF04F0E6EF04F0D9EF04F0062A030E9A
:1009D0000664EDEF04F0EFEF04F0BFEF04F0120057
:1009E0000A500B10D8B4F7EF04F0F9EF04F01DEF44
:1009F00005F0010E0C6E01EF05F0D8900A360B36AB
:100A00000C2A0BAE06EF05F008EF05F0FDEF04F041
:100A10000A50085C0B500958D8A011EF05F013EFED
:100A200005F017EF05F00A50085E0B50095AD890F0
:100A30000B320A320C2E08EF05F008C008F009C08E
:100A400009F01200880EF66E0A0EF76E000EF86EB0
:100A500000EE14F010EE0DF00900F5CFEEFFE550BA
:100A6000E150FAE1256A246A236A226A216A000EAB
:100A7000F86E000101EF03F0956A9250F00B926E50
:100A80008050F00B806E1200000000E721CB6B2D30
:050A90006EEE23EF6F84
:100A96003CEC05F050EC05F0120094500F09946EF2
:020AA60012003C
:042FFC0022EF05F0CB
:00000001FF
