:04000000FEEF17F008
:102B4600ECEC15F0120000EE01F0100EEE6AE8064D
:102B5600FDE1000EF86E00013FEF16F0126E11B0A7
:102B660002D0829201D0828212C083FF8284829434
:102B7600958E828082928284829483BEC5EF15F000
:102B8600C7EF15F0BEEF15F08290959E1200000E6D
:102B9600116E1550B1EC15F0DDEF15F0010E116E4A
:102BA60013C0F6FF14C0F7FF0800F550B1EC15F09E
:102BB600134A142A13C0F6FF14C0F7FF0800F55095
:102BC6000009D8A4E9EF15F0EBEF15F0D1EF15F0F9
:102BD6001200956A9450F80B946E8290620E136EF2
:102BE600660EE82EFED7132EFCD7000E116E330E9E
:102BF600B1EC15F01B0E136E9E0EE82EFED7132EAB
:102C0600FCD700D0000E116E330EB1EC15F0A60EF7
:102C1600E82EFED700D0000E116E330EB1EC15F083
:102C2600A60EE82EFED700D0000E116E020EB1ECF5
:102C360015F0A60EE82EFED700D0000E116E380E47
:102C4600B1EC15F0A60EE82EFED700D0000E116EE0
:102C5600010EB1EC15F0040E136E3E0EE82EFED7F3
:102C6600132EFCD7000E116E020EB1EC15F0A60E57
:102C7600E82EFED700D01200A3EC15F00B0E136E53
:102C86002F0E146E800E156ECAEC15F01A0E176E06
:102C96005E0E166E6E0EE82EFED7162EFCD7172E7B
:102CA600FAD700D05B0E136E2F0E146E800E156EC3
:102CB600CAEC15F01A0E176E5E0E166E6E0EE82E24
:102CC600FED7162EFCD7172EFAD700D08B0E136E12
:102CD6002F0E146E800E156ECAEC15F01A0E176EB6
:102CE6005E0E166E6E0EE82EFED7162EFCD7172E2B
:102CF600FAD700D09B0E136E2F0E146E800E156E33
:102D0600CAEC15F01A0E176E5E0E166E6E0EE82ED3
:102D1600FED7162EFCD7172EFAD700D0AB0E136EA1
:102D26002F0E146E800E156ECAEC15F01A0E176E65
:102D36005E0E166E6E0EE82EFED7162EFCD7172EDA
:102D4600FAD700D0DB0E136E2F0E146E800E156EA2
:102D5600CAEC15F01A0E176E5E0E166E6E0EE82E83
:102D6600FED7162EFCD7172EFAD700D04B0E136EB1
:102D76002F0E146E800E156ECAEC15F01A0E176E15
:102D86005E0E166E6E0EE82EFED7162EFCD7172E8A
:102D9600FAD700D06B0E136E2F0E146E800E156EC2
:102DA600CAEC15F01A0E176E5E0E166E6E0EE82E33
:102DB600FED7162EFCD7172EFAD700D0CB0E136EE1
:102DC6002F0E146E800E156ECAEC15F01A0E176EC5
:102DD6005E0E166E6E0EE82EFED7162EFCD7172E3A
:102DE600FAD700D0EB0E136E2F0E146E800E156EF2
:102DF600CAEC15F01A0E176E5E0E166E6E0EE82EE3
:102E0600FED7162EFCD7172EFAD700D0BB0E136EA0
:102E16002F0E146E800E156ECAEC15F01A0E176E74
:102E26005E0E166E6E0EE82EFED7162EFCD7172EE9
:102E3600FAD700D07B0E136E2F0E146E800E156E11
:102E4600CAEC15F01A0E176E5E0E166E6E0EE82E92
:102E5600FED7162EFCD7172EFAD700D03B0E136ED0
:102E66002F0E146E800E156ECAEC15F01A0E176E24
:102E76005E0E166E6E0EE82EFED7162EFCD7172E99
:102E8600FAD700D02B0E136E2F0E146E800E156E11
:102E9600CAEC15F01A0E176E5E0E166E6E0EE82E42
:102EA600FED7162EFCD7172EFAD700D01B0E136EA0
:102EB6002F0E146E800E156ECAEC15F01A0E176ED4
:102EC6005E0E166E6E0EE82EFED7162EFCD7172E49
:102ED600FAD700D00B0E136E2F0E146E800E156EE1
:102EE600CAEC15F01A0E176E5E0E166E6E0EE82EF2
:102EF600FED7162EFCD7172EFAD700D041EF16F0C4
:102F0600FEEF17F00048656C6C6F20576F726C64AB
:102F160020202020002048656C6C6F20576F726C53
:102F26006420202000202048656C6C6F20576F724B
:102F36006C6420200020202048656C6C6F20576F41
:102F4600726C642000576F726C64202020204865E4
:102F56006C6C6F2000656C6C6F20576F726C642010
:102F660020202048006F726C642020202048656C69
:102F76006C6F2057002020202048656C6C6F20570E
:102F86006F726C64006C6C6F20576F726C642020DB
:102F960020204865006C6F20576F726C64202020DB
:102FA6002048656C006F20576F726C6420202020CB
:102FB60048656C6C00642020202048656C6C6F208E
:102FC600576F726C00726C642020202048656C6C10
:102FD6006F20576F0020576F726C642020202048A6
:102FE600656C6C6F006C642020202048656C6C6FEB
:0A2FF60020576F720000A6EF15F0DF
:00000001FF
